:100000000C9458000C9480000C9480000C94800098
:100010000C9480000C9480000C9480000C9493024B
:100020000C9480000C9480000C9480000C94800050
:100030000C9480000C9480000C9480000C94800040
:100040000C9449020C9480000C9417020C94F1015A
:100050000C9480000C9480000C9480000C94800020
:100060000C9480000C948000000000002400270005
:100070002A000000000023002600290000000000E4
:10008000250028002B0004040404040404040202D4
:100090000202020203030303030301020408102007
:1000A0004080010204081020010204081020BC0254
:1000B00011241FBECFEFD8E0DEBFCDBF11E0A0E01E
:1000C000B1E0E0ECF9E002C005900D92A431B10777
:1000D000D9F721E0A4E1B1E001C01D92A23DB20731
:1000E000E1F710E0C8E5D0E004C02197FE010E94CE
:1000F000D304C735D107C9F70E9429030C94DE0445
:100100000C940000CF92DF92EF92FF920F931F9317
:10011000CF93DF936C017A018B01C0E0D0E0CE1564
:10012000DF0589F0D8016D918D01D601ED91FC912B
:100130000190F081E02DC6010995892B11F47E0113
:1001400002C02196ECCFC701DF91CF911F910F9193
:10015000FF90EF90DF90CF900895FC01918D828DFC
:10016000981761F0828DDF01A80FB11D5D968C910B
:10017000928D9F5F9F73928F90E008958FEF9FEF16
:100180000895FC01918D828D981731F0828DE80FD2
:10019000F11D858D90E008958FEF9FEF0895FC018C
:1001A000918D228D892F90E0805C9F4F821B910959
:1001B0008F739927089583E291E00E94CF0021E098
:1001C000892B09F420E0822F0895FC01848DDF0142
:1001D000A80FB11DA35ABF4F2C91848D90E00196BA
:1001E0008F739927848FA689B7892C93A089B189A9
:1001F0008C9180648C93938D848D981306C00288B3
:10020000F389E02D80818F7D80830895EF92FF92A6
:100210000F931F93CF93DF93EC0181E0888F9B8D29
:100220008C8D981305C0E889F989808185FD24C0EB
:10023000F62E0B8D10E00F5F1F4F0F731127E02E6E
:100240008C8DE8120CC00FB607FCFACFE889F9894B
:10025000808185FFF5CFCE010E94E500F1CF8B8D27
:10026000FE01E80FF11DE35AFF4FF0820B8FEA8980
:10027000FB898081806207C0EE89FF896083E889FD
:10028000F98980818064808381E090E0DF91CF9163
:100290001F910F91FF90EF900895CF93DF93EC01A2
:1002A000888D8823C9F0EA89FB89808185FD05C096
:1002B000A889B9898C9186FD0FC00FB607FCF5CFD0
:1002C000808185FFF2CFA889B9898C9185FFEDCF18
:1002D000CE010E94E500E7CFDF91CF91089580E045
:1002E00090E0892B29F00E94DB0081110C94000022
:1002F00008953FB7F89480911F0190912001A0913B
:100300002101B091220126B5A89B05C02F3F19F00D
:100310000196A11DB11D3FBFBA2FA92F982F882785
:10032000820F911DA11DB11DBC01CD0142E0660FE0
:10033000771F881F991F4A95D1F708958F929F9232
:10034000AF92BF920F931F93CF93DF93CDB7DEB7DA
:10035000A1970FB6F894DEBF0FBECDBF19A24230F1
:1003600008F44AE08E010F5D1F4F842E912CA12CC2
:10037000B12CA50194010E94B104E62FB901CA0174
:1003800001501109EA3014F4E05D01C0E95CD801C4
:10039000EC93232B242B252B61F70115110571F00C
:1003A000F80101900020E9F73197AF01401B510B94
:1003B000B80183E291E00E94820002C080E090E0F8
:1003C000A1960FB6F894DEBF0FBECDBFDF91CF91DF
:1003D0001F910F91BF90AF909F908F9008950E94B2
:1003E000D9041F920F920FB60F9211242F933F93AF
:1003F0004F935F936F937F938F939F93AF93BF932D
:10040000EF93FF9383E291E00E94E500FF91EF916B
:10041000BF91AF919F918F917F916F915F914F911C
:100420003F912F910F900FBE0F901F9018951F9224
:100430000F920FB60F9211242F938F939F93EF93E8
:10044000FF93E0913301F09134018081E091390113
:10045000F0913A0182FD12C0908180913C018F5F42
:100460008F7320913D01821751F0E0913C01F0E043
:10047000ED5DFE4F958F80933C0101C08081FF911F
:10048000EF919F918F912F910F900FBE0F901F9022
:1004900018951F920F920FB60F9211242F933F932E
:1004A0008F939F93AF93BF9380911B0190911C01F9
:1004B000A0911D01B0911E0130911A0123E0230F7C
:1004C0002D3720F40196A11DB11D05C026E8230F8C
:1004D0000296A11DB11D20931A0180931B019093D8
:1004E0001C01A0931D01B0931E0180911F019091EA
:1004F0002001A0912101B09122010196A11DB11D01
:1005000080931F0190932001A0932101B0932201B9
:10051000BF91AF919F918F913F912F910F900FBEFF
:100520000F901F9018951F920F920FB60F921124E3
:100530002F933F934F935F936F937F938F939F93EB
:10054000AF93BF93EF93FF93E0911801F0911901DE
:10055000309709F00995FF91EF91BF91AF919F916D
:100560008F917F916F915F914F913F912F910F905C
:100570000FBE0F901F901895E3E2F1E013821282F4
:1005800088EE93E0A0E0B0E084839583A683B783F0
:1005900084E091E09183808385EC90E09587848767
:1005A00084EC90E09787868780EC90E0918B808B3D
:1005B00081EC90E0938B828B82EC90E0958B848B26
:1005C00086EC90E0978B868B118E128E138E148E94
:1005D000E3EAF0E0E491A0ECB1E01496EC93149718
:1005E000E2EAF0E0E4911596EC9315978FE890E03D
:1005F000FC012491E22FF0E0EE0FFF1FE458FF4FC3
:100600002591349117963C932E931697EEE8F0E0DF
:10061000E491F0E0EE0FFF1FEE58FF4F259134916B
:100620001B963C932E931A97FC018491E82FF0E0DF
:10063000EE0FFF1FE859FF4F8591949119969C93F7
:100640008E93189784EA9CE21D969C938E931C9738
:100650000895789484B5826084BD84B5816084BD3A
:1006600085B5826085BD85B5816085BD80916E0050
:10067000816080936E001092810080918100826081
:1006800080938100809181008160809381008091BE
:1006900080008160809380008091B10084608093AD
:1006A000B1008091B00081608093B00080917A00A9
:1006B000846080937A0080917A00826080937A00CF
:1006C00080917A00816080937A0080917A008068BE
:1006D00080937A001092C100E0913301F0913401CF
:1006E00082E08083E0912F01F09130011082E0914F
:1006F0003101F09132018FEC808310923B01E09147
:100700003701F091380186E08083E0913501F09166
:100710003601808180618083E0913501F09136015E
:10072000808188608083E0913501F091360180817D
:1007300080688083E0913501F091360180818F7D62
:100740008083CBE0D0E003E210E092E9E92EF12CC7
:100750000E9479012B013C0182E3882E912CA12C6F
:10076000B12C0E947901DC01CB0184199509A609FD
:10077000B709883E9340A105B10558F021E0821ADF
:100780009108A108B10888EE480E83E0581E611C4C
:10079000711C81149104A104B10419F7E091C801FE
:1007A000F091C90190818091C401892B8083E091EF
:1007B000C601F091C70190818091C4018095892381
:1007C0008083CE010197F1F7E091C601F091C70156
:1007D00090818091C401892B8083C8010197F1F732
:1007E000E091C601F091C70190818091C40180958C
:1007F00089238083E091C801F091C90190818091A3
:10080000C4018095892380830E947901DC01CB019A
:10081000805B994BAF4FBF4F8093CE019093CF0138
:10082000A093D001B093D101E091CA01F091CB0126
:1008300090818091C5018923F9F00E94790180900F
:10084000CE019090CF01A090D001B090D10186163A
:100850009706A806B90640F70FC00E94790180905C
:10086000CE019090CF01A090D001B090D10186161A
:100870009706A806B906A8F1E091CA01F091CB014C
:1008800090818091C501892341F30E9479012091D3
:10089000CC013091CD01DC01CB01820F931FA11D52
:1008A000B11D8093CE019093CF01A093D001B0935E
:1008B000D101E091CA01F091CB0190818091C501F5
:1008C000892391F00E9479018090CE019090CF0110
:1008D000A090D001B090D10186169706A806B9065F
:1008E00040F780E090E013C00E9479012091CC0194
:1008F0003091CD01A901455051092091CE0130918F
:10090000CF01FA01E21BF30BCF01860F971FB7014E
:100910000E949D046431710568F080E090E04AE037
:100920000E949E0142E050E060E171E083E291E0CC
:100930000E9482000E946F010BCFAA1BBB1B51E1DA
:1009400007C0AA1FBB1FA617B70710F0A61BB70B3F
:10095000881F991F5A95A9F780959095BC01CD01E4
:100960000895A1E21A2EAA1BBB1BFD010DC0AA1FF0
:10097000BB1FEE1FFF1FA217B307E407F50720F008
:10098000A21BB30BE40BF50B661F771F881F991F83
:100990001A9469F760957095809590959B01AC01CC
:1009A000BD01CF010895EE0FFF1F0590F491E02DDA
:1009B000099481E090E0F8940C94DE04F894FFCF61
:1009C0000000000006018200CF00AD00C1004D0113
:0409D0000D0A00000C
:00000001FF
